{
  "contractName": "File",
  "abi": [
    {
      "inputs": [],
      "payable": false,
      "stateMutability": "nonpayable",
      "type": "constructor",
      "signature": "constructor"
    },
    {
      "anonymous": false,
      "inputs": [
        {
          "indexed": false,
          "name": "_ipfsHash",
          "type": "string"
        },
        {
          "indexed": false,
          "name": "_address",
          "type": "address"
        }
      ],
      "name": "ipfsSent",
      "type": "event",
      "signature": "0xd3896131bca4353bcda578f36768163e2ca77cefb2988be6c4e81939ca298ac0"
    },
    {
      "anonymous": false,
      "inputs": [
        {
          "indexed": false,
          "name": "response",
          "type": "string"
        }
      ],
      "name": "inboxResponse",
      "type": "event",
      "signature": "0x2974ec83b4de9f76155d0c3e88bd3c0645c56c1795807f37d3f9e95caafeee57"
    },
    {
      "constant": false,
      "inputs": [
        {
          "name": "_address",
          "type": "address"
        },
        {
          "name": "_ipfsHash",
          "type": "string"
        }
      ],
      "name": "sendIPFS",
      "outputs": [],
      "payable": false,
      "stateMutability": "nonpayable",
      "type": "function",
      "signature": "0x6bfc70e2"
    },
    {
      "constant": false,
      "inputs": [],
      "name": "checkInbox",
      "outputs": [],
      "payable": false,
      "stateMutability": "nonpayable",
      "type": "function",
      "signature": "0x5c23d56f"
    }
  ],
  "bytecode": "0x608060405234801561001057600080fd5b506106cf806100206000396000f3fe60806040526004361061004c576000357c0100000000000000000000000000000000000000000000000000000000900463ffffffff1680635c23d56f146100515780636bfc70e214610068575b600080fd5b34801561005d57600080fd5b50610066610150565b005b34801561007457600080fd5b5061014e6004803603604081101561008b57600080fd5b81019080803573ffffffffffffffffffffffffffffffffffffffff169060200190929190803590602001906401000000008111156100c857600080fd5b8201836020820111156100da57600080fd5b803590602001918460018302840111640100000000831117156100fc57600080fd5b91908080601f016020809104026020016040519081016040528093929190818152602001838380828437600081840152601f19601f8201169050808301925050505050505091929192905050506103a5565b005b60606000803373ffffffffffffffffffffffffffffffffffffffff1673ffffffffffffffffffffffffffffffffffffffff1681526020019081526020016000208054600181600116156101000203166002900480601f0160208091040260200160405190810160405280929190818152602001828054600181600116156101000203166002900480156102245780601f106101f957610100808354040283529160200191610224565b820191906000526020600020905b81548152906001019060200180831161020757829003601f168201915b505050505090506000815114156102a2577f2974ec83b4de9f76155d0c3e88bd3c0645c56c1795807f37d3f9e95caafeee5760405180806020018281038252600b8152602001807f456d70747920496e626f7800000000000000000000000000000000000000000081525060200191505060405180910390a16103a2565b60206040519081016040528060008152506000803373ffffffffffffffffffffffffffffffffffffffff1673ffffffffffffffffffffffffffffffffffffffff16815260200190815260200160002090805190602001906103049291906105fe565b507f2974ec83b4de9f76155d0c3e88bd3c0645c56c1795807f37d3f9e95caafeee57816040518080602001828103825283818151815260200191508051906020019080838360005b8381101561036757808201518184015260208101905061034c565b50505050905090810190601f1680156103945780820380516001836020036101000a031916815260200191505b509250505060405180910390a15b50565b6000808373ffffffffffffffffffffffffffffffffffffffff1673ffffffffffffffffffffffffffffffffffffffff1681526020019081526020016000208054600181600116156101000203166002900480601f0160208091040260200160405190810160405280929190818152602001828054600181600116156101000203166002900480156104775780601f1061044c57610100808354040283529160200191610477565b820191906000526020600020905b81548152906001019060200180831161045a57829003601f168201915b50505050506060819050600081511415156104d5576040517f08c379a0000000000000000000000000000000000000000000000000000000008152600401808060200182810382526000815260200160200191505060405180910390fd5b826000808673ffffffffffffffffffffffffffffffffffffffff1673ffffffffffffffffffffffffffffffffffffffff16815260200190815260200160002090805190602001906105279291906105fe565b507fd3896131bca4353bcda578f36768163e2ca77cefb2988be6c4e81939ca298ac0838560405180806020018373ffffffffffffffffffffffffffffffffffffffff1673ffffffffffffffffffffffffffffffffffffffff168152602001828103825284818151815260200191508051906020019080838360005b838110156105bd5780820151818401526020810190506105a2565b50505050905090810190601f1680156105ea5780820380516001836020036101000a031916815260200191505b50935050505060405180910390a150505050565b828054600181600116156101000203166002900490600052602060002090601f016020900481019282601f1061063f57805160ff191683800117855561066d565b8280016001018555821561066d579182015b8281111561066c578251825591602001919060010190610651565b5b50905061067a919061067e565b5090565b6106a091905b8082111561069c576000816000905550600101610684565b5090565b9056fea165627a7a72305820ab1cee74848d13fc9fc9d5e912c6d28859944c95fb0aac56d77f455fabd9dbc40029",
  "source": "pragma solidity ^0.5.0;\ncontract File{\n    // Structures\n    mapping (address => string) file;\n    // Events\n    event ipfsSent(string _ipfsHash, address _address);\n    event inboxResponse(string response);\n    // Modifiers\n    modifier notFull (string memory _string) {bytes memory stringTest = bytes(_string); require (stringTest.length == 0, \"\"); _;}\n    // An empty constructor that creates an instance of the contract\n    constructor() public {}\n    // A function that takes in the receiver's address and the\n    // IPFS address. Places the IPFS address in the receiver's\n    // inbox.\n    function sendIPFS(address _address, string memory _ipfsHash) public notFull(file[_address]){\n       file[_address] = _ipfsHash;\n       emit ipfsSent(_ipfsHash, _address);\n    }\n    // A function that checks your inbox and empties it afterwards.\n    // Returns an address if there is one, or \"Empty Inbox\"\n    function checkInbox() public{\n        string memory ipfs_hash = file[msg.sender];\n        if(bytes(ipfs_hash).length == 0) {\n            emit inboxResponse(\"Empty Inbox\");\n        } else {\n            file[msg.sender] = \"\";\n            emit inboxResponse(ipfs_hash);\n        }\n    }\n}",
  "sourcePath": "C:/Users/Faouz/Desktop/Desk Folder two/project_run1/contracts/File.sol",
  "compiler": {
    "name": "solc",
    "version": "0.5.0+commit.1d4f565a.Emscripten.clang"
  },
  "schemaVersion": "3.0.2",
  "updatedAt": "2021-03-23T13:37:37.067Z",
  "devdoc": {
    "methods": {}
  },
  "userdoc": {
    "methods": {}
  }
}